{
  "contractName": "Fibonacci",
  "abi": [
    {
      "constant": false,
      "inputs": [
        {
          "name": "n",
          "type": "uint256"
        }
      ],
      "name": "genFibonacci",
      "outputs": [],
      "payable": false,
      "stateMutability": "nonpayable",
      "type": "function"
    }
  ],
  "bytecode": "0x608060405234801561001057600080fd5b5061018d806100206000396000f300608060405260043610610041576000357c0100000000000000000000000000000000000000000000000000000000900463ffffffff1680632e45373414610046575b600080fd5b34801561005257600080fd5b5061007160048036038101908080359060200190929190505050610073565b005b600060028211151561008457600080fd5b600060019080600181540180825580915050906001820390600052602060002001600090919290919091505550600060019080600181540180825580915050906001820390600052602060002001600090919290919091505550600290505b8181101561015d57600080600283038154811015156100fe57fe5b906000526020600020015460006001850381548110151561011b57fe5b906000526020600020015401908060018154018082558091505090600182039060005260206000200160009091929091909150555080806001019150506100e3565b50505600a165627a7a72305820ff20ef1d78f19751d0bb9fdee1b8ef263d5990fa2b1a2dbbd2f526e526f6f6a80029",
  "source": "pragma solidity ^0.4.22;\r\n\r\ncontract Fibonacci{\r\n  uint[] fibonacci;\r\n\r\n  function genFibonacci(uint n) public{\r\n    require(n>2);\r\n    \r\n    fibonacci.push(1);\r\n    fibonacci.push(1);\r\n\r\n    for(uint i=2;i<n;i++){\r\n      fibonacci.push(fibonacci[n-1] + fibonacci[i-2]);\r\n    }\r\n  }\r\n}\r\n",
  "sourcePath": "C:\\Users\\Administrator\\WebstormProjects\\Fibonacci\\contracts\\Fibonacci.sol",
  "compiler": {
    "name": "solc",
    "version": "0.4.24+commit.e67f0147.Emscripten.clang"
  },
  "schemaVersion": "2.0.1",
  "updatedAt": "2018-10-16T08:16:14.408Z"
}